{
  "contractName": "TCTDapp",
  "abi": [
    {
      "constant": true,
      "inputs": [
        {
          "name": "",
          "type": "uint256"
        }
      ],
      "name": "escrows",
      "outputs": [
        {
          "name": "balance",
          "type": "uint256"
        },
        {
          "name": "_carNumber",
          "type": "string"
        },
        {
          "name": "price",
          "type": "uint256"
        },
        {
          "name": "seller",
          "type": "address"
        },
        {
          "name": "buyer",
          "type": "address"
        },
        {
          "name": "deposited",
          "type": "bool"
        },
        {
          "name": "buyerApprove",
          "type": "bool"
        },
        {
          "name": "sellerApprove",
          "type": "bool"
        },
        {
          "name": "start",
          "type": "uint256"
        },
        {
          "name": "lived",
          "type": "bool"
        }
      ],
      "payable": false,
      "stateMutability": "view",
      "type": "function"
    },
    {
      "constant": true,
      "inputs": [
        {
          "name": "",
          "type": "address"
        }
      ],
      "name": "personName",
      "outputs": [
        {
          "name": "",
          "type": "string"
        }
      ],
      "payable": false,
      "stateMutability": "view",
      "type": "function"
    },
    {
      "constant": true,
      "inputs": [
        {
          "name": "",
          "type": "address"
        }
      ],
      "name": "isPerson",
      "outputs": [
        {
          "name": "",
          "type": "bool"
        }
      ],
      "payable": false,
      "stateMutability": "view",
      "type": "function"
    },
    {
      "constant": true,
      "inputs": [],
      "name": "feeAmount",
      "outputs": [
        {
          "name": "",
          "type": "uint256"
        }
      ],
      "payable": false,
      "stateMutability": "view",
      "type": "function"
    },
    {
      "constant": true,
      "inputs": [],
      "name": "owner",
      "outputs": [
        {
          "name": "",
          "type": "address"
        }
      ],
      "payable": false,
      "stateMutability": "view",
      "type": "function"
    },
    {
      "constant": false,
      "inputs": [
        {
          "name": "newOwner",
          "type": "address"
        }
      ],
      "name": "transferOwnership",
      "outputs": [],
      "payable": false,
      "stateMutability": "nonpayable",
      "type": "function"
    },
    {
      "inputs": [
        {
          "name": "_tokenAddress",
          "type": "address"
        }
      ],
      "payable": false,
      "stateMutability": "nonpayable",
      "type": "constructor"
    },
    {
      "anonymous": false,
      "inputs": [
        {
          "indexed": false,
          "name": "from",
          "type": "address"
        },
        {
          "indexed": false,
          "name": "_carNumber",
          "type": "string"
        },
        {
          "indexed": false,
          "name": "data",
          "type": "string"
        }
      ],
      "name": "repairUpdate",
      "type": "event"
    },
    {
      "anonymous": false,
      "inputs": [
        {
          "indexed": false,
          "name": "from",
          "type": "address"
        },
        {
          "indexed": false,
          "name": "to",
          "type": "address"
        },
        {
          "indexed": false,
          "name": "_carNumber",
          "type": "string"
        }
      ],
      "name": "changeOwner",
      "type": "event"
    },
    {
      "anonymous": false,
      "inputs": [
        {
          "indexed": false,
          "name": "_who",
          "type": "address"
        }
      ],
      "name": "personRegister",
      "type": "event"
    },
    {
      "anonymous": false,
      "inputs": [
        {
          "indexed": false,
          "name": "_who",
          "type": "address"
        },
        {
          "indexed": false,
          "name": "_carNumber",
          "type": "string"
        },
        {
          "indexed": false,
          "name": "_model",
          "type": "string"
        }
      ],
      "name": "carRegister",
      "type": "event"
    },
    {
      "anonymous": false,
      "inputs": [
        {
          "indexed": false,
          "name": "_orderNumber",
          "type": "uint256"
        },
        {
          "indexed": false,
          "name": "_buyer",
          "type": "address"
        }
      ],
      "name": "Deposit",
      "type": "event"
    },
    {
      "anonymous": false,
      "inputs": [
        {
          "indexed": false,
          "name": "_orderNumber",
          "type": "uint256"
        },
        {
          "indexed": false,
          "name": "_seller",
          "type": "address"
        },
        {
          "indexed": false,
          "name": "_buyer",
          "type": "address"
        },
        {
          "indexed": false,
          "name": "_carNumber",
          "type": "string"
        },
        {
          "indexed": false,
          "name": "price",
          "type": "uint256"
        }
      ],
      "name": "Receipt",
      "type": "event"
    },
    {
      "anonymous": false,
      "inputs": [
        {
          "indexed": false,
          "name": "_orderNumber",
          "type": "uint256"
        },
        {
          "indexed": false,
          "name": "_seller",
          "type": "address"
        },
        {
          "indexed": false,
          "name": "_buyer",
          "type": "address"
        }
      ],
      "name": "Cancel",
      "type": "event"
    },
    {
      "anonymous": false,
      "inputs": [
        {
          "indexed": false,
          "name": "_orderNumber",
          "type": "uint256"
        },
        {
          "indexed": false,
          "name": "_seller",
          "type": "address"
        },
        {
          "indexed": false,
          "name": "_buyer",
          "type": "address"
        },
        {
          "indexed": false,
          "name": "_time",
          "type": "uint256"
        }
      ],
      "name": "TimeOut",
      "type": "event"
    },
    {
      "constant": false,
      "inputs": [
        {
          "name": "_tokenAddress",
          "type": "address"
        }
      ],
      "name": "changeCurrent",
      "outputs": [],
      "payable": false,
      "stateMutability": "nonpayable",
      "type": "function"
    },
    {
      "constant": true,
      "inputs": [
        {
          "name": "_carNumber",
          "type": "string"
        }
      ],
      "name": "getIsCar",
      "outputs": [
        {
          "name": "",
          "type": "bool"
        }
      ],
      "payable": false,
      "stateMutability": "view",
      "type": "function"
    },
    {
      "constant": true,
      "inputs": [
        {
          "name": "_carNumber",
          "type": "string"
        }
      ],
      "name": "getCarOwner",
      "outputs": [
        {
          "name": "",
          "type": "address"
        }
      ],
      "payable": false,
      "stateMutability": "view",
      "type": "function"
    },
    {
      "constant": true,
      "inputs": [
        {
          "name": "_carNumber",
          "type": "string"
        }
      ],
      "name": "getCardetail",
      "outputs": [
        {
          "name": "",
          "type": "address"
        },
        {
          "name": "",
          "type": "string"
        }
      ],
      "payable": false,
      "stateMutability": "view",
      "type": "function"
    },
    {
      "constant": true,
      "inputs": [
        {
          "name": "_carNumber",
          "type": "string"
        }
      ],
      "name": "getRepairCount",
      "outputs": [
        {
          "name": "",
          "type": "uint256"
        }
      ],
      "payable": false,
      "stateMutability": "view",
      "type": "function"
    },
    {
      "constant": true,
      "inputs": [
        {
          "name": "_carNumber",
          "type": "string"
        },
        {
          "name": "_index",
          "type": "uint256"
        }
      ],
      "name": "getRepairInfo",
      "outputs": [
        {
          "name": "_from",
          "type": "address"
        },
        {
          "name": "_repairInfo",
          "type": "string"
        },
        {
          "name": "_isRepaired",
          "type": "bool"
        }
      ],
      "payable": false,
      "stateMutability": "view",
      "type": "function"
    },
    {
      "constant": true,
      "inputs": [],
      "name": "nowCurrent",
      "outputs": [
        {
          "name": "",
          "type": "address"
        }
      ],
      "payable": false,
      "stateMutability": "view",
      "type": "function"
    },
    {
      "constant": false,
      "inputs": [
        {
          "name": "name",
          "type": "string"
        }
      ],
      "name": "setPerson",
      "outputs": [
        {
          "name": "",
          "type": "bool"
        }
      ],
      "payable": false,
      "stateMutability": "nonpayable",
      "type": "function"
    },
    {
      "constant": false,
      "inputs": [
        {
          "name": "_carNumber",
          "type": "string"
        },
        {
          "name": "_model",
          "type": "string"
        }
      ],
      "name": "setCar",
      "outputs": [],
      "payable": false,
      "stateMutability": "nonpayable",
      "type": "function"
    },
    {
      "constant": false,
      "inputs": [
        {
          "name": "_carNumber",
          "type": "string"
        },
        {
          "name": "_repairInfo",
          "type": "string"
        },
        {
          "name": "_isRepaired",
          "type": "bool"
        }
      ],
      "name": "setRepairInfo",
      "outputs": [],
      "payable": false,
      "stateMutability": "nonpayable",
      "type": "function"
    },
    {
      "constant": false,
      "inputs": [
        {
          "name": "_carNumber",
          "type": "string"
        },
        {
          "name": "_price",
          "type": "uint256"
        },
        {
          "name": "_buyer",
          "type": "address"
        }
      ],
      "name": "escrowCreate",
      "outputs": [
        {
          "name": "",
          "type": "uint256"
        }
      ],
      "payable": false,
      "stateMutability": "nonpayable",
      "type": "function"
    },
    {
      "constant": false,
      "inputs": [
        {
          "name": "_orderNumber",
          "type": "uint256"
        }
      ],
      "name": "deposit",
      "outputs": [],
      "payable": false,
      "stateMutability": "nonpayable",
      "type": "function"
    },
    {
      "constant": false,
      "inputs": [
        {
          "name": "_orderNumber",
          "type": "uint256"
        }
      ],
      "name": "Approve",
      "outputs": [],
      "payable": false,
      "stateMutability": "nonpayable",
      "type": "function"
    },
    {
      "constant": false,
      "inputs": [
        {
          "name": "_orderNumber",
          "type": "uint256"
        }
      ],
      "name": "cancel",
      "outputs": [],
      "payable": false,
      "stateMutability": "nonpayable",
      "type": "function"
    },
    {
      "constant": false,
      "inputs": [
        {
          "name": "addr",
          "type": "address"
        },
        {
          "name": "_value",
          "type": "uint256"
        }
      ],
      "name": "withdraw",
      "outputs": [],
      "payable": false,
      "stateMutability": "nonpayable",
      "type": "function"
    }
  ],
  "bytecode": "0x608060405234801561001057600080fd5b5060405160208061390883398101806040528101908080519060200190929190505050336000806101000a81548173ffffffffffffffffffffffffffffffffffffffff021916908373ffffffffffffffffffffffffffffffffffffffff16021790555080600860006101000a81548173ffffffffffffffffffffffffffffffffffffffff021916908373ffffffffffffffffffffffffffffffffffffffff16021790555080600960006101000a81548173ffffffffffffffffffffffffffffffffffffffff021916908373ffffffffffffffffffffffffffffffffffffffff1602179055506000600a81905550506137fb8061010d6000396000f30060806040526004361061011d576000357c0100000000000000000000000000000000000000000000000000000000900463ffffffff168063012f52ee146101225780630b7555561461026f5780630b8cf8d11461032b5780630f73927a146103d45780632ddc4e2b1461042f5780634065726a146104de57806340e58ee514610599578063518f09d8146105c6578063666bec4e1461061d57806369e1540414610660578063727b703f1461068b57806377b92c07146107085780638da5cb5b146107355780639ba0ccfe1461078c578063b6b55f251461080d578063c28889851461083a578063cfd8c06c146108e1578063f04bdd8a14610962578063f156329814610a8c578063f2fde38b14610ba1578063f3fef3a314610be4575b600080fd5b34801561012e57600080fd5b5061014d60048036038101908080359060200190929190505050610c31565b604051808b8152602001806020018a81526020018973ffffffffffffffffffffffffffffffffffffffff1673ffffffffffffffffffffffffffffffffffffffff1681526020018873ffffffffffffffffffffffffffffffffffffffff1673ffffffffffffffffffffffffffffffffffffffff1681526020018715151515815260200186151515158152602001851515151581526020018481526020018315151515815260200182810382528b818151815260200191508051906020019080838360005b8381101561022b578082015181840152602081019050610210565b50505050905090810190601f1680156102585780820380516001836020036101000a031916815260200191505b509b50505050505050505050505060405180910390f35b34801561027b57600080fd5b506102b0600480360381019080803573ffffffffffffffffffffffffffffffffffffffff169060200190929190505050610d91565b6040518080602001828103825283818151815260200191508051906020019080838360005b838110156102f05780820151818401526020810190506102d5565b50505050905090810190601f16801561031d5780820380516001836020036101000a031916815260200191505b509250505060405180910390f35b34801561033757600080fd5b50610392600480360381019080803590602001908201803590602001908080601f0160208091040260200160405190810160405280939291908181526020018383808284378201915050505050509192919290505050610e41565b604051808273ffffffffffffffffffffffffffffffffffffffff1673ffffffffffffffffffffffffffffffffffffffff16815260200191505060405180910390f35b3480156103e057600080fd5b50610415600480360381019080803573ffffffffffffffffffffffffffffffffffffffff169060200190929190505050610e96565b604051808215151515815260200191505060405180910390f35b34801561043b57600080fd5b506104dc600480360381019080803590602001908201803590602001908080601f0160208091040260200160405190810160405280939291908181526020018383808284378201915050505050509192919290803590602001908201803590602001908080601f0160208091040260200160405190810160405280939291908181526020018383808284378201915050505050509192919290505050610eb6565b005b3480156104ea57600080fd5b50610597600480360381019080803590602001908201803590602001908080601f0160208091040260200160405190810160405280939291908181526020018383808284378201915050505050509192919290803590602001908201803590602001908080601f0160208091040260200160405190810160405280939291908181526020018383808284378201915050505050509192919290803515159060200190929190505050611167565b005b3480156105a557600080fd5b506105c460048036038101908080359060200190929190505050611486565b005b3480156105d257600080fd5b506105db611906565b604051808273ffffffffffffffffffffffffffffffffffffffff1673ffffffffffffffffffffffffffffffffffffffff16815260200191505060405180910390f35b34801561062957600080fd5b5061065e600480360381019080803573ffffffffffffffffffffffffffffffffffffffff169060200190929190505050611930565b005b34801561066c57600080fd5b50610675611a10565b6040518082815260200191505060405180910390f35b34801561069757600080fd5b506106f2600480360381019080803590602001908201803590602001908080601f0160208091040260200160405190810160405280939291908181526020018383808284378201915050505050509192919290505050611a16565b6040518082815260200191505060405180910390f35b34801561071457600080fd5b5061073360048036038101908080359060200190929190505050611a48565b005b34801561074157600080fd5b5061074a612306565b604051808273ffffffffffffffffffffffffffffffffffffffff1673ffffffffffffffffffffffffffffffffffffffff16815260200191505060405180910390f35b34801561079857600080fd5b506107f3600480360381019080803590602001908201803590602001908080601f016020809104026020016040519081016040528093929190818152602001838380828437820191505050505050919291929050505061232b565b604051808215151515815260200191505060405180910390f35b34801561081957600080fd5b506108386004803603810190808035906020019092919050505061249d565b005b34801561084657600080fd5b506108cb600480360381019080803590602001908201803590602001908080601f016020809104026020016040519081016040528093929190818152602001838380828437820191505050505050919291929080359060200190929190803573ffffffffffffffffffffffffffffffffffffffff169060200190929190505050612921565b6040518082815260200191505060405180910390f35b3480156108ed57600080fd5b50610948600480360381019080803590602001908201803590602001908080601f0160208091040260200160405190810160405280939291908181526020018383808284378201915050505050509192919290505050612b66565b604051808215151515815260200191505060405180910390f35b34801561096e57600080fd5b506109d3600480360381019080803590602001908201803590602001908080601f016020809104026020016040519081016040528093929190818152602001838380828437820191505050505050919291929080359060200190929190505050612ba5565b604051808473ffffffffffffffffffffffffffffffffffffffff1673ffffffffffffffffffffffffffffffffffffffff1681526020018060200183151515158152602001828103825284818151815260200191508051906020019080838360005b83811015610a4f578082015181840152602081019050610a34565b50505050905090810190601f168015610a7c5780820380516001836020036101000a031916815260200191505b5094505050505060405180910390f35b348015610a9857600080fd5b50610af3600480360381019080803590602001908201803590602001908080601f0160208091040260200160405190810160405280939291908181526020018383808284378201915050505050509192919290505050612d5d565b604051808373ffffffffffffffffffffffffffffffffffffffff1673ffffffffffffffffffffffffffffffffffffffff16815260200180602001828103825283818151815260200191508051906020019080838360005b83811015610b65578082015181840152602081019050610b4a565b50505050905090810190601f168015610b925780820380516001836020036101000a031916815260200191505b50935050505060405180910390f35b348015610bad57600080fd5b50610be2600480360381019080803573ffffffffffffffffffffffffffffffffffffffff169060200190929190505050612e71565b005b348015610bf057600080fd5b50610c2f600480360381019080803573ffffffffffffffffffffffffffffffffffffffff16906020019092919080359060200190929190505050612f0f565b005b6007602052806000526040600020600091509050806000015490806001018054600181600116156101000203166002900480601f016020809104026020016040519081016040528092919081815260200182805460018160011615610100020316600290048015610ce35780601f10610cb857610100808354040283529160200191610ce3565b820191906000526020600020905b815481529060010190602001808311610cc657829003601f168201915b5050505050908060020154908060030160009054906101000a900473ffffffffffffffffffffffffffffffffffffffff16908060040160009054906101000a900473ffffffffffffffffffffffffffffffffffffffff16908060040160149054906101000a900460ff16908060040160159054906101000a900460ff16908060040160169054906101000a900460ff16908060050154908060060160009054906101000a900460ff1690508a565b60026020528060005260406000206000915090508054600181600116156101000203166002900480601f016020809104026020016040519081016040528092919081815260200182805460018160011615610100020316600290048015610e395780601f10610e0e57610100808354040283529160200191610e39565b820191906000526020600020905b815481529060010190602001808311610e1c57829003601f168201915b505050505081565b600080610e4d83613079565b905060046000826000191660001916815260200190815260200160002060000160009054906101000a900473ffffffffffffffffffffffffffffffffffffffff16915050919050565b60016020528060005260406000206000915054906101000a900460ff1681565b60006020835111151515610ec957600080fd5b610ed283613079565b905060036000826000191660001916815260200190815260200160002060009054906101000a900460ff16151515610f0957600080fd5b600160003373ffffffffffffffffffffffffffffffffffffffff1673ffffffffffffffffffffffffffffffffffffffff16815260200190815260200160002060009054906101000a900460ff161515610f6157600080fd5b816004600083600019166000191681526020019081526020016000206001019080519060200190610f939291906136aa565b503360046000836000191660001916815260200190815260200160002060000160006101000a81548173ffffffffffffffffffffffffffffffffffffffff021916908373ffffffffffffffffffffffffffffffffffffffff160217905550600160036000836000191660001916815260200190815260200160002060006101000a81548160ff0219169083151502179055507fea9c23bf4fd7df4c6c9ddb9116c080bedae86d32d1eb02102e373a88c2c477c6338484604051808473ffffffffffffffffffffffffffffffffffffffff1673ffffffffffffffffffffffffffffffffffffffff1681526020018060200180602001838103835285818151815260200191508051906020019080838360005b838110156110bf5780820151818401526020810190506110a4565b50505050905090810190601f1680156110ec5780820380516001836020036101000a031916815260200191505b50838103825284818151815260200191508051906020019080838360005b8381101561112557808201518184015260208101905061110a565b50505050905090810190601f1680156111525780820380516001836020036101000a031916815260200191505b509550505050505060405180910390a1505050565b600080600160003373ffffffffffffffffffffffffffffffffffffffff1673ffffffffffffffffffffffffffffffffffffffff16815260200190815260200160002060009054906101000a900460ff1615156111c257600080fd5b60208551111515156111d357600080fd5b6111dc85613079565b915060036000836000191660001916815260200190815260200160002060009054906101000a900460ff16151561121257600080fd5b6005600083600019166000191681526020019081526020016000205490506060604051908101604052803373ffffffffffffffffffffffffffffffffffffffff168152602001858152602001841515815250600660008460001916600019168152602001908152602001600020600083815260200190815260200160002060008201518160000160006101000a81548173ffffffffffffffffffffffffffffffffffffffff021916908373ffffffffffffffffffffffffffffffffffffffff16021790555060208201518160010190805190602001906112f392919061372a565b5060408201518160020160006101000a81548160ff021916908315150217905550905050600560008360001916600019168152602001908152602001600020600081548092919060010191905055507f9957473cf84da61ac3502e81a96526088e347ccad075930fa3f58e244acfcd1b338686604051808473ffffffffffffffffffffffffffffffffffffffff1673ffffffffffffffffffffffffffffffffffffffff1681526020018060200180602001838103835285818151815260200191508051906020019080838360005b838110156113dc5780820151818401526020810190506113c1565b50505050905090810190601f1680156114095780820380516001836020036101000a031916815260200191505b50838103825284818151815260200191508051906020019080838360005b83811015611442578082015181840152602081019050611427565b50505050905090810190601f16801561146f5780820380516001836020036101000a031916815260200191505b509550505050505060405180910390a15050505050565b806007600082815260200190815260200160002060060160009054906101000a900460ff1615156114b657600080fd5b3373ffffffffffffffffffffffffffffffffffffffff166007600084815260200190815260200160002060030160009054906101000a900473ffffffffffffffffffffffffffffffffffffffff1673ffffffffffffffffffffffffffffffffffffffff1614156115545760006007600084815260200190815260200160002060040160166101000a81548160ff0219169083151502179055506115ef565b6007600083815260200190815260200160002060040160009054906101000a900473ffffffffffffffffffffffffffffffffffffffff1673ffffffffffffffffffffffffffffffffffffffff163373ffffffffffffffffffffffffffffffffffffffff1614156115ee5760006007600084815260200190815260200160002060040160156101000a81548160ff0219169083151502179055505b5b6007600083815260200190815260200160002060040160169054906101000a900460ff1615801561164157506007600083815260200190815260200160002060040160159054906101000a900460ff16155b15611902576007600083815260200190815260200160002060040160149054906101000a900460ff16156117c757600960009054906101000a900473ffffffffffffffffffffffffffffffffffffffff1673ffffffffffffffffffffffffffffffffffffffff1663a9059cbb6007600085815260200190815260200160002060040160009054906101000a900473ffffffffffffffffffffffffffffffffffffffff1660076000868152602001908152602001600020600001546040518363ffffffff167c0100000000000000000000000000000000000000000000000000000000028152600401808373ffffffffffffffffffffffffffffffffffffffff1673ffffffffffffffffffffffffffffffffffffffff16815260200182815260200192505050602060405180830381600087803b15801561178057600080fd5b505af1158015611794573d6000803e3d6000fd5b505050506040513d60208110156117aa57600080fd5b810190808051906020019092919050505015156117c657600080fd5b5b7f789f8a0b90cb5b009f91a043ae5e1b06674fc2ec6262b58971b8722068395150826007600085815260200190815260200160002060030160009054906101000a900473ffffffffffffffffffffffffffffffffffffffff166007600086815260200190815260200160002060040160009054906101000a900473ffffffffffffffffffffffffffffffffffffffff16604051808481526020018373ffffffffffffffffffffffffffffffffffffffff1673ffffffffffffffffffffffffffffffffffffffff1681526020018273ffffffffffffffffffffffffffffffffffffffff1673ffffffffffffffffffffffffffffffffffffffff168152602001935050505060405180910390a160006007600084815260200190815260200160002060060160006101000a81548160ff0219169083151502179055505b5050565b6000600860009054906101000a900473ffffffffffffffffffffffffffffffffffffffff16905090565b6000809054906101000a900473ffffffffffffffffffffffffffffffffffffffff1673ffffffffffffffffffffffffffffffffffffffff163373ffffffffffffffffffffffffffffffffffffffff1614151561198b57600080fd5b80600860006101000a81548173ffffffffffffffffffffffffffffffffffffffff021916908373ffffffffffffffffffffffffffffffffffffffff16021790555080600960006101000a81548173ffffffffffffffffffffffffffffffffffffffff021916908373ffffffffffffffffffffffffffffffffffffffff16021790555050565b60125481565b600080611a2283613079565b905060056000826000191660001916815260200190815260200160002054915050919050565b806007600082815260200190815260200160002060060160009054906101000a900460ff161515611a7857600080fd5b6007600083815260200190815260200160002060030160009054906101000a900473ffffffffffffffffffffffffffffffffffffffff1673ffffffffffffffffffffffffffffffffffffffff163373ffffffffffffffffffffffffffffffffffffffff161480611b4957506007600083815260200190815260200160002060040160009054906101000a900473ffffffffffffffffffffffffffffffffffffffff1673ffffffffffffffffffffffffffffffffffffffff163373ffffffffffffffffffffffffffffffffffffffff16145b1515611b5457600080fd5b6007600083815260200190815260200160002060030160009054906101000a900473ffffffffffffffffffffffffffffffffffffffff1673ffffffffffffffffffffffffffffffffffffffff163373ffffffffffffffffffffffffffffffffffffffff16148015611be557506007600083815260200190815260200160002060040160149054906101000a900460ff165b15611c1a5760016007600084815260200190815260200160002060040160166101000a81548160ff0219169083151502179055505b6007600083815260200190815260200160002060040160009054906101000a900473ffffffffffffffffffffffffffffffffffffffff1673ffffffffffffffffffffffffffffffffffffffff163373ffffffffffffffffffffffffffffffffffffffff161415611cb45760016007600084815260200190815260200160002060040160156101000a81548160ff0219169083151502179055505b6007600083815260200190815260200160002060040160169054906101000a900460ff168015611d0457506007600083815260200190815260200160002060040160159054906101000a900460ff165b15611eea57611d12826130a4565b1515611d1d57600080fd5b7f8d14e6796e9f62724a6f957ff466628d8d39bd0981a09421402786d206947119826007600085815260200190815260200160002060030160009054906101000a900473ffffffffffffffffffffffffffffffffffffffff166007600086815260200190815260200160002060040160009054906101000a900473ffffffffffffffffffffffffffffffffffffffff16600760008781526020019081526020016000206001016007600088815260200190815260200160002060020154604051808681526020018573ffffffffffffffffffffffffffffffffffffffff1673ffffffffffffffffffffffffffffffffffffffff1681526020018473ffffffffffffffffffffffffffffffffffffffff1673ffffffffffffffffffffffffffffffffffffffff16815260200180602001838152602001828103825284818154600181600116156101000203166002900481526020019150805460018160011615610100020316600290048015611ed35780601f10611ea857610100808354040283529160200191611ed3565b820191906000526020600020905b815481529060010190602001808311611eb657829003601f168201915b5050965050505050505060405180910390a1612302565b6007600083815260200190815260200160002060040160159054906101000a900460ff168015611f3b57506007600083815260200190815260200160002060040160169054906101000a900460ff16155b8015611f61575062278d0060076000848152602001908152602001600020600501540142115b1561230157600960009054906101000a900473ffffffffffffffffffffffffffffffffffffffff1673ffffffffffffffffffffffffffffffffffffffff1663a9059cbb6007600085815260200190815260200160002060040160009054906101000a900473ffffffffffffffffffffffffffffffffffffffff1660076000868152602001908152602001600020600001546040518363ffffffff167c0100000000000000000000000000000000000000000000000000000000028152600401808373ffffffffffffffffffffffffffffffffffffffff1673ffffffffffffffffffffffffffffffffffffffff16815260200182815260200192505050602060405180830381600087803b15801561207757600080fd5b505af115801561208b573d6000803e3d6000fd5b505050506040513d60208110156120a157600080fd5b8101908080519060200190929190505050507fe5dea8cdaf65c0fb592fe0da0d74b3041360b7ef3f00a42a94a9a30430748a0b826007600085815260200190815260200160002060030160009054906101000a900473ffffffffffffffffffffffffffffffffffffffff166007600086815260200190815260200160002060040160009054906101000a900473ffffffffffffffffffffffffffffffffffffffff1642604051808581526020018473ffffffffffffffffffffffffffffffffffffffff1673ffffffffffffffffffffffffffffffffffffffff1681526020018373ffffffffffffffffffffffffffffffffffffffff1673ffffffffffffffffffffffffffffffffffffffff16815260200182815260200194505050505060405180910390a17f789f8a0b90cb5b009f91a043ae5e1b06674fc2ec6262b58971b8722068395150826007600085815260200190815260200160002060030160009054906101000a900473ffffffffffffffffffffffffffffffffffffffff166007600086815260200190815260200160002060040160009054906101000a900473ffffffffffffffffffffffffffffffffffffffff16604051808481526020018373ffffffffffffffffffffffffffffffffffffffff1673ffffffffffffffffffffffffffffffffffffffff1681526020018273ffffffffffffffffffffffffffffffffffffffff1673ffffffffffffffffffffffffffffffffffffffff168152602001935050505060405180910390a160006007600084815260200190815260200160002060060160006101000a81548160ff0219169083151502179055505b5b5050565b6000809054906101000a900473ffffffffffffffffffffffffffffffffffffffff1681565b6000600160003373ffffffffffffffffffffffffffffffffffffffff1673ffffffffffffffffffffffffffffffffffffffff16815260200190815260200160002060009054906101000a900460ff1615151561238657600080fd5b60018060003373ffffffffffffffffffffffffffffffffffffffff1673ffffffffffffffffffffffffffffffffffffffff16815260200190815260200160002060006101000a81548160ff02191690831515021790555081600260003373ffffffffffffffffffffffffffffffffffffffff1673ffffffffffffffffffffffffffffffffffffffff16815260200190815260200160002090805190602001906124309291906136aa565b507fdb3c2af31dab6bb8584c4e89e61ecedf902774f55c6c67d5a8868ef3950d8c0133604051808273ffffffffffffffffffffffffffffffffffffffff1673ffffffffffffffffffffffffffffffffffffffff16815260200191505060405180910390a160019050919050565b8062278d00600760008381526020019081526020016000206005015401421015156124f25760006007600083815260200190815260200160002060060160006101000a81548160ff0219169083151502179055505b816007600082815260200190815260200160002060060160009054906101000a900460ff16151561252257600080fd5b6007600084815260200190815260200160002060020154600960009054906101000a900473ffffffffffffffffffffffffffffffffffffffff1673ffffffffffffffffffffffffffffffffffffffff166370a08231336040518263ffffffff167c0100000000000000000000000000000000000000000000000000000000028152600401808273ffffffffffffffffffffffffffffffffffffffff1673ffffffffffffffffffffffffffffffffffffffff168152602001915050602060405180830381600087803b1580156125f657600080fd5b505af115801561260a573d6000803e3d6000fd5b505050506040513d602081101561262057600080fd5b81019080805190602001909291905050501015151561263e57600080fd5b3373ffffffffffffffffffffffffffffffffffffffff166007600085815260200190815260200160002060040160009054906101000a900473ffffffffffffffffffffffffffffffffffffffff1673ffffffffffffffffffffffffffffffffffffffff161415156126ae57600080fd5b6007600084815260200190815260200160002060040160149054906101000a900460ff161515156126de57600080fd5b600960009054906101000a900473ffffffffffffffffffffffffffffffffffffffff1673ffffffffffffffffffffffffffffffffffffffff166323b872dd333060076000888152602001908152602001600020600201546040518463ffffffff167c0100000000000000000000000000000000000000000000000000000000028152600401808473ffffffffffffffffffffffffffffffffffffffff1673ffffffffffffffffffffffffffffffffffffffff1681526020018373ffffffffffffffffffffffffffffffffffffffff1673ffffffffffffffffffffffffffffffffffffffff1681526020018281526020019350505050602060405180830381600087803b1580156127ed57600080fd5b505af1158015612801573d6000803e3d6000fd5b505050506040513d602081101561281757600080fd5b8101908080519060200190929190505050506128686007600085815260200190815260200160002060020154600760008681526020019081526020016000206000015461340390919063ffffffff16565b600760008581526020019081526020016000206000018190555060016007600085815260200190815260200160002060040160146101000a81548160ff0219169083151502179055507f4bcc17093cdf51079c755de089be5a85e70fa374ec656c194480fbdcda224a538333604051808381526020018273ffffffffffffffffffffffffffffffffffffffff1673ffffffffffffffffffffffffffffffffffffffff1681526020019250505060405180910390a1505050565b600061292c84610e41565b73ffffffffffffffffffffffffffffffffffffffff163373ffffffffffffffffffffffffffffffffffffffff1614151561296557600080fd5b600a6000815480929190600101919050555061014060405190810160405280600081526020018581526020018481526020013373ffffffffffffffffffffffffffffffffffffffff1681526020018373ffffffffffffffffffffffffffffffffffffffff1681526020016000151581526020016000151581526020016000151581526020014281526020016001151581525060076000600a548152602001908152602001600020600082015181600001556020820151816001019080519060200190612a3292919061372a565b506040820151816002015560608201518160030160006101000a81548173ffffffffffffffffffffffffffffffffffffffff021916908373ffffffffffffffffffffffffffffffffffffffff16021790555060808201518160040160006101000a81548173ffffffffffffffffffffffffffffffffffffffff021916908373ffffffffffffffffffffffffffffffffffffffff16021790555060a08201518160040160146101000a81548160ff02191690831515021790555060c08201518160040160156101000a81548160ff02191690831515021790555060e08201518160040160166101000a81548160ff02191690831515021790555061010082015181600501556101208201518160060160006101000a81548160ff021916908315150217905550905050600a5490509392505050565b600080612b7283613079565b905060036000826000191660001916815260200190815260200160002060009054906101000a900460ff16915050919050565b600060606000806020865111151515612bbd57600080fd5b612bc686613079565b90508460056000836000191660001916815260200190815260200160002054111515612bf157600080fd5b600660008260001916600019168152602001908152602001600020600086815260200190815260200160002060000160009054906101000a900473ffffffffffffffffffffffffffffffffffffffff16935060066000826000191660001916815260200190815260200160002060008681526020019081526020016000206001018054600181600116156101000203166002900480601f016020809104026020016040519081016040528092919081815260200182805460018160011615610100020316600290048015612d065780601f10612cdb57610100808354040283529160200191612d06565b820191906000526020600020905b815481529060010190602001808311612ce957829003601f168201915b50505050509250600660008260001916600019168152602001908152602001600020600086815260200190815260200160002060020160009054906101000a900460ff169150838383935093509350509250925092565b600060606000612d6c84613079565b905060046000826000191660001916815260200190815260200160002060000160009054906101000a900473ffffffffffffffffffffffffffffffffffffffff16600460008360001916600019168152602001908152602001600020600101808054600181600116156101000203166002900480601f016020809104026020016040519081016040528092919081815260200182805460018160011615610100020316600290048015612e605780601f10612e3557610100808354040283529160200191612e60565b820191906000526020600020905b815481529060010190602001808311612e4357829003601f168201915b505050505090509250925050915091565b6000809054906101000a900473ffffffffffffffffffffffffffffffffffffffff1673ffffffffffffffffffffffffffffffffffffffff163373ffffffffffffffffffffffffffffffffffffffff16141515612ecc57600080fd5b806000806101000a81548173ffffffffffffffffffffffffffffffffffffffff021916908373ffffffffffffffffffffffffffffffffffffffff16021790555050565b6000809054906101000a900473ffffffffffffffffffffffffffffffffffffffff1673ffffffffffffffffffffffffffffffffffffffff163373ffffffffffffffffffffffffffffffffffffffff16141515612f6a57600080fd5b600960009054906101000a900473ffffffffffffffffffffffffffffffffffffffff1673ffffffffffffffffffffffffffffffffffffffff1663a9059cbb83836040518363ffffffff167c0100000000000000000000000000000000000000000000000000000000028152600401808373ffffffffffffffffffffffffffffffffffffffff1673ffffffffffffffffffffffffffffffffffffffff16815260200182815260200192505050602060405180830381600087803b15801561302f57600080fd5b505af1158015613043573d6000803e3d6000fd5b505050506040513d602081101561305957600080fd5b8101908080519060200190929190505050151561307557600080fd5b5050565b60006060829050600081511415613096576000600102915061309e565b602083015191505b50919050565b6000806130d16064600760008681526020019081526020016000206000015461341f90919063ffffffff16565b90506130e88160125461340390919063ffffffff16565b60128190555061311781600760008681526020019081526020016000206000015461343590919063ffffffff16565b6007600085815260200190815260200160002060000181905550600960009054906101000a900473ffffffffffffffffffffffffffffffffffffffff1673ffffffffffffffffffffffffffffffffffffffff1663a9059cbb6007600086815260200190815260200160002060030160009054906101000a900473ffffffffffffffffffffffffffffffffffffffff1660076000878152602001908152602001600020600001546040518363ffffffff167c0100000000000000000000000000000000000000000000000000000000028152600401808373ffffffffffffffffffffffffffffffffffffffff1673ffffffffffffffffffffffffffffffffffffffff16815260200182815260200192505050602060405180830381600087803b15801561324257600080fd5b505af1158015613256573d6000803e3d6000fd5b505050506040513d602081101561326c57600080fd5b8101908080519060200190929190505050151561328857600080fd5b6133ad6007600085815260200190815260200160002060030160009054906101000a900473ffffffffffffffffffffffffffffffffffffffff166007600086815260200190815260200160002060040160009054906101000a900473ffffffffffffffffffffffffffffffffffffffff16600760008781526020019081526020016000206001018054600181600116156101000203166002900480601f0160208091040260200160405190810160405280929190818152602001828054600181600116156101000203166002900480156133a35780601f10613378576101008083540402835291602001916133a3565b820191906000526020600020905b81548152906001019060200180831161338657829003601f168201915b505050505061344e565b506000600760008581526020019081526020016000206000018190555060006007600085815260200190815260200160002060060160006101000a81548160ff0219169083151502179055506001915050919050565b6000818301905082811015151561341657fe5b80905092915050565b6000818381151561342c57fe5b04905092915050565b600082821115151561344357fe5b818303905092915050565b600080602083511115151561346257600080fd5b61346b83613079565b90508473ffffffffffffffffffffffffffffffffffffffff1660046000836000191660001916815260200190815260200160002060000160009054906101000a900473ffffffffffffffffffffffffffffffffffffffff1673ffffffffffffffffffffffffffffffffffffffff161415156134e557600080fd5b600160008573ffffffffffffffffffffffffffffffffffffffff1673ffffffffffffffffffffffffffffffffffffffff16815260200190815260200160002060009054906101000a900460ff16151561353d57600080fd5b8360046000836000191660001916815260200190815260200160002060000160006101000a81548173ffffffffffffffffffffffffffffffffffffffff021916908373ffffffffffffffffffffffffffffffffffffffff1602179055507f596d8d8e0558bb71228a790477c45086520126c9edd00e3b7aa5e631b1fcbf90858585604051808473ffffffffffffffffffffffffffffffffffffffff1673ffffffffffffffffffffffffffffffffffffffff1681526020018373ffffffffffffffffffffffffffffffffffffffff1673ffffffffffffffffffffffffffffffffffffffff16815260200180602001828103825283818151815260200191508051906020019080838360005b83811015613662578082015181840152602081019050613647565b50505050905090810190601f16801561368f5780820380516001836020036101000a031916815260200191505b5094505050505060405180910390a160019150509392505050565b828054600181600116156101000203166002900490600052602060002090601f016020900481019282601f106136eb57805160ff1916838001178555613719565b82800160010185558215613719579182015b828111156137185782518255916020019190600101906136fd565b5b50905061372691906137aa565b5090565b828054600181600116156101000203166002900490600052602060002090601f016020900481019282601f1061376b57805160ff1916838001178555613799565b82800160010185558215613799579182015b8281111561379857825182559160200191906001019061377d565b5b5090506137a691906137aa565b5090565b6137cc91905b808211156137c85760008160009055506001016137b0565b5090565b905600a165627a7a7230582033d8048a0460779b4bc0cc6cd995df7ce1ea20e9a69ff3ac840fcad44f9e9de80029",
  "source": "pragma solidity ^0.4.21;\n\n//lib SafeMath\nlibrary SafeMath {\n\n      /**\n    * @dev Multiplies two numbers, throws on overflow.\n    */\n    function mul(uint256 a, uint256 b) internal pure returns (uint256 c) {\n    // Gas optimization: this is cheaper than asserting 'a' not being zero, but the\n    // benefit is lost if 'b' is also tested.\n    // See: https://github.com/OpenZeppelin/openzeppelin-solidity/pull/522\n    if (a == 0) {\n        return 0;\n    }\n\n        c = a * b;\n        assert(c / a == b);\n        return c;\n    }\n\n    /**\n    * @dev Integer division of two numbers, truncating the quotient.\n    */\n    function div(uint256 a, uint256 b) internal pure returns (uint256) {\n    // assert(b > 0); // Solidity automatically throws when dividing by 0\n    // uint256 c = a / b;\n    // assert(a == b * c + a % b); // There is no case in which this doesn't hold\n        return a / b;\n    }\n\n    /**\n    * @dev Subtracts two numbers, throws on overflow (i.e. if subtrahend is greater than minuend).\n    */\n    function sub(uint256 a, uint256 b) internal pure returns (uint256) {\n        assert(b <= a);\n        return a - b;\n    }\n\n    /**\n    * @dev Adds two numbers, throws on overflow.\n    */\n    function add(uint256 a, uint256 b) internal pure returns (uint256 c) {\n        c = a + b;\n        assert(c >= a);\n        return c;\n    }\n}\ncontract owned {\n    address public owner;\n    \n    constructor() public{\n        owner = msg.sender;\n    }\n\n    modifier onlyOwner {\n        require(msg.sender == owner);\n        _;\n    }\n    //        \n    // msg.sender == owner     \n\n\n    function transferOwnership(address newOwner) onlyOwner public {\n        owner = newOwner;\n    }\n    //Owner  \n}\ncontract Token{\n    function totalSupply() public constant returns (uint);\n    function balanceOf(address tokenOwner) public constant returns (uint balance);\n    function allowance(address tokenOwner, address spender) public constant returns (uint remaining);\n    function transfer(address to, uint tokens) public returns (bool success);\n    function approve(address spender, uint tokens) public returns (bool success);\n    function transferFrom(address from, address to, uint tokens) public returns (bool success);\n\n    event Transfer(address indexed from, address indexed to, uint tokens);\n    event Approval(address indexed tokenOwner, address indexed spender, uint tokens);\n}\ncontract TCTDapp is owned{\n    using SafeMath for uint;\n    \n    struct CarInfo{\n        address owner;\n        string model;\n    }//  \n    \n    struct repairRecipt{\n        address from;\n        string repairInfo;\n        bool isRepaired;\n    }// \n\n    struct Escrow{\n        uint balance;               //balance\n        \n        string _carNumber;                //Car Number\n        uint price;                 //price\n        \n        address seller;             //\n        address buyer;              //\n\n        bool deposited;             // \n        bool buyerApprove;          // \n        bool sellerApprove;         // \n\n        uint start;                  //startTime;\n        bool lived;                 //,   -> true\n    }//Escrow\n\n\n    //  \n    mapping(address => bool) public isPerson;\n    mapping(address => string) public personName;\n    //  \n    mapping(bytes32 => bool) isCar;\n    //  \n    mapping(bytes32 => CarInfo) carDetail;\n    //   \n    mapping(bytes32 => uint) repairCount;\n    //  \n    mapping(bytes32 => mapping(uint => repairRecipt)) repairList;\n    //Escrow\n    mapping(uint => Escrow) public escrows;\n\n    //    \n    event repairUpdate(address from, string _carNumber, string data);\n    //  \n    event changeOwner(address from, address to, string _carNumber);\n    //  \n    event personRegister(address _who);\n    //  \n    event carRegister(address _who, string _carNumber, string _model);\n    //\n    event Deposit(uint _orderNumber, address  _buyer);                             \n    // \n    event Receipt(uint _orderNumber, address _seller,address _buyer,string _carNumber ,uint price);\n    //          \n    event Cancel(uint _orderNumber, address _seller, address _buyer);\n    //TimeOut \n    event TimeOut(uint _orderNumber,address _seller,address _buyer, uint _time);      \n\n    address tokenAddress;\n    Token tokenInstance;\n    uint orderCount;\n    Escrow escrow;\n    uint public feeAmount;\n    \n    modifier afterDeadline(uint _orderNumber) {\n        if(now >= escrows[_orderNumber].start + 30 days) \n            escrows[_orderNumber].lived = false;\n        _;\n    }\n\n    modifier isLived(uint _orderNumber){\n        require(escrows[_orderNumber].lived);\n        _;\n    }\n\n    constructor(address _tokenAddress) public{\n        tokenAddress = _tokenAddress;\n        tokenInstance = Token(_tokenAddress);\n        orderCount = 0;\n    }\n\n    function changeCurrent(address _tokenAddress) onlyOwner public{\n        tokenAddress = _tokenAddress;\n        tokenInstance = Token(_tokenAddress);\n    }\n//getter\n    function getIsCar(string _carNumber) public view returns(bool){\n        bytes32 carNumber = stringToBytes32(_carNumber);\n        return(isCar[carNumber]);\n    }\n\n    function getCarOwner(string _carNumber)public view returns(address){\n        bytes32 carNumber = stringToBytes32(_carNumber);\n        return(carDetail[carNumber].owner);\n    }\n\n    function getCardetail(string _carNumber) public view returns(address,string){\n        bytes32 carNumber = stringToBytes32(_carNumber);\n        return(carDetail[carNumber].owner,carDetail[carNumber].model);\n    }\n\n    function getRepairCount(string _carNumber) public view returns(uint){\n        bytes32 carNumber = stringToBytes32(_carNumber);\n        return(repairCount[carNumber]);\n    }\n\n    function getRepairInfo(string _carNumber,uint _index) public view returns(address _from, string _repairInfo, bool _isRepaired){\n        require(bytes(_carNumber).length <= 32);\n        bytes32 carNumber = stringToBytes32(_carNumber);\n        require(repairCount[carNumber] > _index);\n        _from = repairList[carNumber][_index].from;\n        _repairInfo = repairList[carNumber][_index].repairInfo;\n        _isRepaired = repairList[carNumber][_index].isRepaired;\n        return(_from,_repairInfo,_isRepaired);\n    }\n//end getter\n\n    function nowCurrent() public view returns(address){\n        return(tokenAddress);\n    }\n\n    // \n    function setPerson(string name) public returns(bool){\n        require(!isPerson[msg.sender]);\n        isPerson[msg.sender] = true;\n        personName[msg.sender] = name;\n        emit personRegister(msg.sender);\n        return true;\n    }\n\n    //  \n    function setCar(string _carNumber,string _model)public {\n        require(bytes(_carNumber).length <= 32);\n        bytes32 carNumber = stringToBytes32(_carNumber);\n        require(!isCar[carNumber]);\n        require(isPerson[msg.sender]);\n        carDetail[carNumber].model = _model;\n        carDetail[carNumber].owner = msg.sender;\n        isCar[carNumber] = true;\n        emit carRegister(msg.sender,_carNumber,_model);\n    }\n\n    // \n    function setRepairInfo(string _carNumber,string _repairInfo,bool _isRepaired)public {\n        require(isPerson[msg.sender]);\n        require(bytes(_carNumber).length <= 32);\n        bytes32 carNumber = stringToBytes32(_carNumber);\n        require(isCar[carNumber]);\n\n        uint count = repairCount[carNumber];\n        repairList[carNumber][count] = repairRecipt(msg.sender,_repairInfo,_isRepaired);\n        \n        repairCount[carNumber]++;\n\n        emit repairUpdate(msg.sender,_carNumber,_repairInfo);\n    }\n\n    //Escrow \n    function escrowCreate(string _carNumber, uint _price, address _buyer) public returns(uint){\n        require(msg.sender == getCarOwner(_carNumber));\n        orderCount++;\n        escrows[orderCount] = Escrow(0, _carNumber, _price, msg.sender, _buyer, false,false,false,now,true);\n\n        return orderCount;\n    }\n\n    function deposit(uint _orderNumber) public afterDeadline(_orderNumber) isLived(_orderNumber){\n        require(tokenInstance.balanceOf(msg.sender) >= escrows[_orderNumber].price);\n        require(address(escrows[_orderNumber].buyer) == msg.sender);\n        require(!escrows[_orderNumber].deposited);\n        tokenInstance.transferFrom(msg.sender,address(this),escrows[_orderNumber].price);\n        escrows[_orderNumber].balance = escrows[_orderNumber].balance.add(escrows[_orderNumber].price);\n        escrows[_orderNumber].deposited = true;\n        emit Deposit(_orderNumber,msg.sender);\n    }\n\n    function Approve(uint _orderNumber) public isLived(_orderNumber){\n        require(msg.sender == escrows[_orderNumber].seller || msg.sender == escrows[_orderNumber].buyer);\n\n        if(msg.sender == escrows[_orderNumber].seller && escrows[_orderNumber].deposited)\n            escrows[_orderNumber].sellerApprove = true;\n        \n        if(msg.sender == escrows[_orderNumber].buyer)\n            escrows[_orderNumber].buyerApprove = true;\n\n        if(escrows[_orderNumber].sellerApprove && escrows[_orderNumber].buyerApprove){\n            //Pay and Exchange;\n            if(!payAndExchange(_orderNumber)){\n                revert();\n            }\n            //Transfer Token\n            emit Receipt(_orderNumber,escrows[_orderNumber].seller,escrows[_orderNumber].buyer,escrows[_orderNumber]._carNumber,escrows[_orderNumber].price);\n        }\n        else if(escrows[_orderNumber].buyerApprove && !escrows[_orderNumber].sellerApprove && now > escrows[_orderNumber].start + 30 days){\n            tokenInstance.transfer(escrows[_orderNumber].buyer,escrows[_orderNumber].balance);\n            emit TimeOut(_orderNumber,escrows[_orderNumber].seller,escrows[_orderNumber].buyer,now);\n            emit Cancel(_orderNumber,escrows[_orderNumber].seller,escrows[_orderNumber].buyer);\n            escrows[_orderNumber].lived = false;\n        }\n    }\n    \n    function ownerChange(address _from, address _to, string _carNumber) internal returns(bool){\n        require(bytes(_carNumber).length <= 32);\n        bytes32 carNumber = stringToBytes32(_carNumber);\n        require(carDetail[carNumber].owner == _from);\n        require(isPerson[_to]);\n        carDetail[carNumber].owner = _to;\n        emit changeOwner(_from,_to,_carNumber);\n        return true;\n    }\n\n    function payAndExchange(uint _orderNumber) internal returns (bool){\n        uint fees;\n        fees = escrows[_orderNumber].balance.div(100);\n        feeAmount = feeAmount.add(fees);\n        escrows[_orderNumber].balance = escrows[_orderNumber].balance.sub(fees);\n        if(!tokenInstance.transfer(escrows[_orderNumber].seller,escrows[_orderNumber].balance))\n            revert();\n        ownerChange(escrows[_orderNumber].seller,escrows[_orderNumber].buyer,escrows[_orderNumber]._carNumber);\n        escrows[_orderNumber].balance = 0;\n        escrows[_orderNumber].lived = false;   // \n        return true;\n    }\n\n    function cancel(uint _orderNumber) public isLived(_orderNumber){\n        if(escrows[_orderNumber].seller == msg.sender){\n            escrows[_orderNumber].sellerApprove = false;\n        }\n        else if(msg.sender == escrows[_orderNumber].buyer){\n            escrows[_orderNumber].buyerApprove = false;\n        }\n        if(!escrows[_orderNumber].sellerApprove && !escrows[_orderNumber].buyerApprove){\n            if(escrows[_orderNumber].deposited){\n                if(!tokenInstance.transfer(escrows[_orderNumber].buyer,escrows[_orderNumber].balance)) revert();\n            }\n            emit Cancel(_orderNumber,escrows[_orderNumber].seller,escrows[_orderNumber].buyer);\n            escrows[_orderNumber].lived = false;\n        }\n    }\n    \n    //Fees withdraw\n    function withdraw(address addr,uint _value) onlyOwner public{\n        if(!tokenInstance.transfer(addr,_value)) revert();\n    }   \n\n    //string to Bytes32\n    function stringToBytes32(string memory source) pure internal returns(bytes32 result) {\n        bytes memory tempEmptyStringTest = bytes(source);\n        if (tempEmptyStringTest.length == 0) {\n            return 0x0;\n        }\n        assembly {\n            result := mload(add(source, 32))\n        }\n    }\n\n}",
  "sourcePath": "C:\\Users\\gmltn\\c\\car\\contracts\\TCTDapp.sol",
  "schemaVersion": "2.0.1",
  "updatedAt": "2018-09-15T10:13:02.653Z"
}